{
  "contractName": "SarisariStore",
  "abi": [
    {
      "inputs": [],
      "stateMutability": "nonpayable",
      "type": "constructor"
    },
    {
      "inputs": [],
      "name": "owner",
      "outputs": [
        {
          "internalType": "address",
          "name": "",
          "type": "address"
        }
      ],
      "stateMutability": "view",
      "type": "function",
      "constant": true
    },
    {
      "inputs": [],
      "name": "productStock",
      "outputs": [
        {
          "internalType": "uint256",
          "name": "",
          "type": "uint256"
        }
      ],
      "stateMutability": "view",
      "type": "function",
      "constant": true
    },
    {
      "inputs": [
        {
          "internalType": "uint256",
          "name": "_stock",
          "type": "uint256"
        }
      ],
      "name": "setStock",
      "outputs": [],
      "stateMutability": "nonpayable",
      "type": "function"
    },
    {
      "inputs": [],
      "name": "checkStockInvariant",
      "outputs": [],
      "stateMutability": "view",
      "type": "function",
      "constant": true
    },
    {
      "inputs": [
        {
          "internalType": "uint256",
          "name": "_prodID",
          "type": "uint256"
        }
      ],
      "name": "validateProductID",
      "outputs": [],
      "stateMutability": "pure",
      "type": "function",
      "constant": true
    },
    {
      "inputs": [
        {
          "internalType": "address",
          "name": "newOwner",
          "type": "address"
        }
      ],
      "name": "transferOwnership",
      "outputs": [],
      "stateMutability": "nonpayable",
      "type": "function"
    },
    {
      "inputs": [],
      "name": "getStock",
      "outputs": [
        {
          "internalType": "uint256",
          "name": "",
          "type": "uint256"
        }
      ],
      "stateMutability": "view",
      "type": "function",
      "constant": true
    }
  ],
  "bytecode": "0x608060405234801561001057600080fd5b50336000806101000a81548173ffffffffffffffffffffffffffffffffffffffff021916908373ffffffffffffffffffffffffffffffffffffffff1602179055506107c5806100606000396000f3fe608060405234801561001057600080fd5b506004361061007d5760003560e01c8063e249b05c1161005b578063e249b05c146100d8578063e38ffcd8146100e2578063f2fde38b14610100578063f6dcc3701461011c5761007d565b80633bd12c4414610082578063474a99951461009e5780638da5cb5b146100ba575b600080fd5b61009c60048036038101906100979190610421565b61013a565b005b6100b860048036038101906100b39190610421565b610180565b005b6100c261025b565b6040516100cf919061048f565b60405180910390f35b6100e061027f565b005b6100ea610296565b6040516100f791906104b9565b60405180910390f35b61011a60048036038101906101159190610500565b6102a0565b005b6101246103e0565b60405161013191906104b9565b60405180910390f35b6096810361017d576040517f08c379a0000000000000000000000000000000000000000000000000000000008152600401610174906105b0565b60405180910390fd5b50565b60008054906101000a900473ffffffffffffffffffffffffffffffffffffffff1673ffffffffffffffffffffffffffffffffffffffff163373ffffffffffffffffffffffffffffffffffffffff161461020e576040517f08c379a000000000000000000000000000000000000000000000000000000000815260040161020590610642565b60405180910390fd5b60008111610251576040517f08c379a0000000000000000000000000000000000000000000000000000000008152600401610248906106ae565b60405180910390fd5b8060018190555050565b60008054906101000a900473ffffffffffffffffffffffffffffffffffffffff1681565b620f424060015410610294576102936106ce565b5b565b6000600154905090565b60008054906101000a900473ffffffffffffffffffffffffffffffffffffffff1673ffffffffffffffffffffffffffffffffffffffff163373ffffffffffffffffffffffffffffffffffffffff161461032e576040517f08c379a000000000000000000000000000000000000000000000000000000000815260040161032590610642565b60405180910390fd5b600073ffffffffffffffffffffffffffffffffffffffff168173ffffffffffffffffffffffffffffffffffffffff160361039d576040517f08c379a00000000000000000000000000000000000000000000000000000000081526004016103949061076f565b60405180910390fd5b806000806101000a81548173ffffffffffffffffffffffffffffffffffffffff021916908373ffffffffffffffffffffffffffffffffffffffff16021790555050565b60015481565b600080fd5b6000819050919050565b6103fe816103eb565b811461040957600080fd5b50565b60008135905061041b816103f5565b92915050565b600060208284031215610437576104366103e6565b5b60006104458482850161040c565b91505092915050565b600073ffffffffffffffffffffffffffffffffffffffff82169050919050565b60006104798261044e565b9050919050565b6104898161046e565b82525050565b60006020820190506104a46000830184610480565b92915050565b6104b3816103eb565b82525050565b60006020820190506104ce60008301846104aa565b92915050565b6104dd8161046e565b81146104e857600080fd5b50565b6000813590506104fa816104d4565b92915050565b600060208284031215610516576105156103e6565b5b6000610524848285016104eb565b91505092915050565b600082825260208201905092915050565b7f50726f6475637420313530206973207265737472696374656420616e6420646f60008201527f6e27742073656c6c206974210000000000000000000000000000000000000000602082015250565b600061059a602c8361052d565b91506105a58261053e565b604082019050919050565b600060208201905081810360008301526105c98161058d565b9050919050565b7f416363657373207265737472696374656420746f20746865206f776e6572206f60008201527f6e6c792100000000000000000000000000000000000000000000000000000000602082015250565b600061062c60248361052d565b9150610637826105d0565b604082019050919050565b6000602082019050818103600083015261065b8161061f565b9050919050565b7f53746f636b206d7573742062652067726561746572207468616e207a65726f00600082015250565b6000610698601f8361052d565b91506106a382610662565b602082019050919050565b600060208201905081810360008301526106c78161068b565b9050919050565b7f4e487b7100000000000000000000000000000000000000000000000000000000600052600160045260246000fd5b7f4e6577206f776e65722063616e6e6f7420626520746865207a65726f2061646460008201527f7265737300000000000000000000000000000000000000000000000000000000602082015250565b600061075960248361052d565b9150610764826106fd565b604082019050919050565b600060208201905081810360008301526107888161074c565b905091905056fea2646970667358221220133ec7413edf7d247a9a8e4cad824ade9ea23570e8c775d88abab435275b726764736f6c63430008110033",
  "immutableReferences": {},
  "source": "// SPDX-License-Identifier: MIT\npragma solidity ^0.8.17;\n\ncontract SarisariStore {\n    address public owner;\n    uint256 public productStock;\n\n    constructor() {\n        owner = msg.sender; // Set the deployer as the owner\n    }\n\n    // Modifier to restrict access to the owner\n    modifier onlyOwner() {\n        require(msg.sender == owner, \"Access restricted to the owner only!\");\n        _;\n    }\n\n    function setStock(uint256 _stock) public onlyOwner {\n        // Require the value to be positive\n        require(_stock > 0, \"Stock must be greater than zero\");\n        productStock = _stock;\n    }\n\n    function checkStockInvariant() public view {\n        // Assert that the value is always less than 1 million\n        assert(productStock < 1_000_000);\n    }\n\n    function validateProductID(uint256 _prodID) public pure {\n        if (_prodID == 150) {\n            revert(\"Product 150 is restricted and don't sell it!\");\n        }\n    }\n\n    function transferOwnership(address newOwner) public onlyOwner {\n        require(newOwner != address(0), \"New owner cannot be the zero address\");\n        owner = newOwner;\n    }\n    function getStock() public view returns (uint256) {\n        return productStock;\n    }\n}",
  "sourcePath": "/workspace/solidity_starter/contracts/SarisariStore.sol",
  "compiler": {
    "name": "solc",
    "version": "0.8.17+commit.8df45f5f.Emscripten.clang"
  },
  "schemaVersion": "3.4.16",
  "updatedAt": "2024-11-16T16:10:11.841Z",
  "networkType": "ethereum",
  "devdoc": {
    "kind": "dev",
    "methods": {},
    "version": 1
  },
  "userdoc": {
    "kind": "user",
    "methods": {},
    "version": 1
  }
}