{
  "contractName": "SmartContract",
  "abi": [
    {
      "inputs": [],
      "stateMutability": "nonpayable",
      "type": "constructor"
    },
    {
      "inputs": [],
      "name": "owner",
      "outputs": [
        {
          "internalType": "address",
          "name": "",
          "type": "address"
        }
      ],
      "stateMutability": "view",
      "type": "function",
      "constant": true
    },
    {
      "inputs": [],
      "name": "value",
      "outputs": [
        {
          "internalType": "uint256",
          "name": "",
          "type": "uint256"
        }
      ],
      "stateMutability": "view",
      "type": "function",
      "constant": true
    },
    {
      "inputs": [
        {
          "internalType": "uint256",
          "name": "_value",
          "type": "uint256"
        }
      ],
      "name": "setValue",
      "outputs": [],
      "stateMutability": "nonpayable",
      "type": "function"
    },
    {
      "inputs": [],
      "name": "checkInvariant",
      "outputs": [],
      "stateMutability": "view",
      "type": "function",
      "constant": true
    },
    {
      "inputs": [
        {
          "internalType": "uint256",
          "name": "_value",
          "type": "uint256"
        }
      ],
      "name": "revertExample",
      "outputs": [],
      "stateMutability": "pure",
      "type": "function",
      "constant": true
    },
    {
      "inputs": [
        {
          "internalType": "address",
          "name": "newOwner",
          "type": "address"
        }
      ],
      "name": "transferOwnership",
      "outputs": [],
      "stateMutability": "nonpayable",
      "type": "function"
    }
  ],
  "bytecode": "0x608060405234801561001057600080fd5b50336000806101000a81548173ffffffffffffffffffffffffffffffffffffffff021916908373ffffffffffffffffffffffffffffffffffffffff160217905550610736806100606000396000f3fe608060405234801561001057600080fd5b50600436106100625760003560e01c80633fa4f24514610067578063533cb9741461008557806355241077146100a15780638da5cb5b146100bd578063e79487da146100db578063f2fde38b146100e5575b600080fd5b61006f610101565b60405161007c91906103bc565b60405180910390f35b61009f600480360381019061009a9190610408565b610107565b005b6100bb60048036038101906100b69190610408565b61014d565b005b6100c5610228565b6040516100d29190610476565b60405180910390f35b6100e361024c565b005b6100ff60048036038101906100fa91906104bd565b610263565b005b60015481565b602a810361014a576040517f08c379a000000000000000000000000000000000000000000000000000000000815260040161014190610547565b60405180910390fd5b50565b60008054906101000a900473ffffffffffffffffffffffffffffffffffffffff1673ffffffffffffffffffffffffffffffffffffffff163373ffffffffffffffffffffffffffffffffffffffff16146101db576040517f08c379a00000000000000000000000000000000000000000000000000000000081526004016101d2906105b3565b60405180910390fd5b6000811161021e576040517f08c379a00000000000000000000000000000000000000000000000000000000081526004016102159061061f565b60405180910390fd5b8060018190555050565b60008054906101000a900473ffffffffffffffffffffffffffffffffffffffff1681565b620f4240600154106102615761026061063f565b5b565b60008054906101000a900473ffffffffffffffffffffffffffffffffffffffff1673ffffffffffffffffffffffffffffffffffffffff163373ffffffffffffffffffffffffffffffffffffffff16146102f1576040517f08c379a00000000000000000000000000000000000000000000000000000000081526004016102e8906105b3565b60405180910390fd5b600073ffffffffffffffffffffffffffffffffffffffff168173ffffffffffffffffffffffffffffffffffffffff1603610360576040517f08c379a0000000000000000000000000000000000000000000000000000000008152600401610357906106e0565b60405180910390fd5b806000806101000a81548173ffffffffffffffffffffffffffffffffffffffff021916908373ffffffffffffffffffffffffffffffffffffffff16021790555050565b6000819050919050565b6103b6816103a3565b82525050565b60006020820190506103d160008301846103ad565b92915050565b600080fd5b6103e5816103a3565b81146103f057600080fd5b50565b600081359050610402816103dc565b92915050565b60006020828403121561041e5761041d6103d7565b5b600061042c848285016103f3565b91505092915050565b600073ffffffffffffffffffffffffffffffffffffffff82169050919050565b600061046082610435565b9050919050565b61047081610455565b82525050565b600060208201905061048b6000830184610467565b92915050565b61049a81610455565b81146104a557600080fd5b50565b6000813590506104b781610491565b92915050565b6000602082840312156104d3576104d26103d7565b5b60006104e1848285016104a8565b91505092915050565b600082825260208201905092915050565b7f5468652076616c7565203432206973206e6f7420616c6c6f7765640000000000600082015250565b6000610531601b836104ea565b915061053c826104fb565b602082019050919050565b6000602082019050818103600083015261056081610524565b9050919050565b7f596f7520617265206e6f7420746865206f776e65720000000000000000000000600082015250565b600061059d6015836104ea565b91506105a882610567565b602082019050919050565b600060208201905081810360008301526105cc81610590565b9050919050565b7f56616c7565206d7573742062652067726561746572207468616e207a65726f00600082015250565b6000610609601f836104ea565b9150610614826105d3565b602082019050919050565b60006020820190508181036000830152610638816105fc565b9050919050565b7f4e487b7100000000000000000000000000000000000000000000000000000000600052600160045260246000fd5b7f4e6577206f776e65722063616e6e6f7420626520746865207a65726f2061646460008201527f7265737300000000000000000000000000000000000000000000000000000000602082015250565b60006106ca6024836104ea565b91506106d58261066e565b604082019050919050565b600060208201905081810360008301526106f9816106bd565b905091905056fea26469706673582212202d0b6c07f67b9bb3b8417aaaa0b3da5d4d325ded437e72488ac9a6e48414d9e564736f6c63430008110033",
  "immutableReferences": {},
  "source": "// SPDX-License-Identifier: MIT\npragma solidity ^0.8.17;\n\ncontract SmartContract {\n    address public owner;\n    uint256 public value;\n\n    constructor() {\n        owner = msg.sender; // Set the deployer as the owner\n    }\n\n    // Modifier to restrict access to the owner\n    modifier onlyOwner() {\n        require(msg.sender == owner, \"You are not the owner\");\n        _;\n    }\n\n    // Function to set a new value with a require statement\n    function setValue(uint256 _value) public onlyOwner {\n        // Require the value to be positive\n        require(_value > 0, \"Value must be greater than zero\");\n        value = _value;\n    }\n\n    // Function to test the assert statement\n    function checkInvariant() public view {\n        // Assert that the value is always less than 1 million\n        assert(value < 1_000_000);\n    }\n\n    // Function to demonstrate revert\n    function revertExample(uint256 _value) public pure {\n        // Revert if the value is equal to 42\n        if (_value == 42) {\n            revert(\"The value 42 is not allowed\");\n        }\n    }\n\n    // Function to transfer ownership\n    function transferOwnership(address newOwner) public onlyOwner {\n        require(newOwner != address(0), \"New owner cannot be the zero address\");\n        owner = newOwner;\n    }\n}",
  "sourcePath": "/workspace/solidity_starter/contracts/SmartContract.sol",
  "compiler": {
    "name": "solc",
    "version": "0.8.17+commit.8df45f5f.Emscripten.clang"
  },
  "schemaVersion": "3.4.16",
  "updatedAt": "2024-11-16T13:48:53.573Z",
  "networkType": "ethereum",
  "devdoc": {
    "kind": "dev",
    "methods": {},
    "version": 1
  },
  "userdoc": {
    "kind": "user",
    "methods": {},
    "version": 1
  }
}